:020000040001F9
:10B00000D0220020D5B00100EFB00100F1B0010066
:10B010000000000000000000000000000000000030
:10B02000000000000000000000000000F3B001007C
:10B030000000000000000000F5B00100F7B00100C2
:10B0400039B30100F9B0010075B40100F9B0010095
:10B05000F9B0010000000000A5B10100F9B0010045
:10B06000F9B00100F9B00100F9B00100F9B0010038
:10B07000F9B00100F9B00100F9B00100F9B0010028
:10B08000F9B001008DB30100F9B00100F9B0010081
:10B09000ADB30100F9B00100B5B30100F9B0010092
:10B0A000F9B00100F9B0010000000000000000004C
:10B0B0000000000000000000000000000000000090
:10B0C0000348854600F05CF800480047FDC20100D7
:10B0D000D02200200321094802680A430260084880
:10B0E00002680A4302600748804707480047FEE7B6
:10B0F000FEE7FEE7FEE7FEE7FEE70000240500406E
:10B1000054050040D5B30100C1B0010030B50B4675
:10B11000014600202022012409E00D46D5409D4231
:10B1200005D31D469540491B2546954040191546B7
:10B13000521E002DF1DC30BD03460B439B0703D0AC
:10B1400009E008C9121F08C0042AFAD203E00B78EC
:10B150000370401C491C521EF9D27047D2B201E064
:10B160000270401C491EFBD270470022F6E710B562
:10B1700013460A4604461946FFF7F0FF204610BD65
:10B18000064C0125064E05E0E36807CC2B430C3C3A
:10B1900098471034B442F7D3FFF796FFD0CE0100A2
:10B1A000F0CE0100F0B50025FF268BB0013601245A
:10B1B0002F460195304601F00FFB002807D0484884
:10B1C0004068204203D0304601F0FEFA2543361D88
:10B1D00064007F1CB6B2042FECD3FF247D342046DC
:10B1E00001F0FAFA002807D0204601F0EDFA6007D6
:10B1F00005433C48006901903B4C280714D00127C7
:10B2000000262F420CD03948B2001118086909698C
:10B21000C004C00E8903A258890F002A00D09047AD
:10B220007F00761C042EECD3002D57DA0020059009
:10B23000401E4DE0A119403108788506AD0E42B29E
:10B24000521C39D00121A940089A0091114233D0F3
:10B2500080090390284600F001FE800020580490E9
:10B26000002802D10398032826D1039800990328C7
:10B2700002D10598084305901D4AA800801800686F
:10B28000019A8003800F114202D0022802D013E0FD
:10B29000032811D10399032907D102281CD00221C8
:10B2A000284601F081FA7F1CFFB20498002803D0E1
:10B2B000049A284603999047761C042EBAD3002F8F
:10B2C0000CD0084800690199884207D00190059880
:10B2D00000273E460890ADE70321E1E70BB0F0BD43
:10B2E0000063004000050050481A0020006500403F
:10B2F000000700508307FF22DB0E9A408907090EE2
:10B30000994000280BDA0007000F08388308084826
:10B310009B001818C36993430B43C36170478308AC
:10B3200004489B001B181868904308431860704736
:10B3300000ED00E000E400E0F8B5FF20013001F08E
:10B34000B4F8002401250E4E0E4F002807D00E48F9
:10B3500004600120B0607D70002000F087FDFF20B8
:10B36000053001F0A2F8002808D00748001D04604D
:10B370000220B060BD70012000F078FDF8BD000033
:10B3800000030040341A00200001004010B50649B7
:10B390000020086048608860C86003494039086040
:10B3A000486001F0F5FB10BD4011014010B501F0FF
:10B3B00061FB10BD10B506484068002805D08047E5
:10B3C000002801D000F0F8F910BD00F073FE10BDA8
:10B3D000D818002010B500F0ADFE002805D01F4998
:10B3E0001D484860C8131E4988611E48018CC9B2B7
:10B3F00001290BD1828C120708D1028D1206120F7F
:10B40000042A03D1828D1206120F0AD0012921D1FC
:10B41000818C09071ED1018D0906090F0A2904D064
:10B4200007E0114A01219160F5E7828D1206120FA3
:10B4300005D00D290ED1808D0006000F0AD10B48D2
:10B440000168012904D00A49016001680129FCD181
:10B45000C021416110BD0000DFFF07C000050040B2
:10B46000006C0040C00F00F00006004000EC0640F9
:10B470007593000010B50249024801F0E4FB10BDCD
:10B48000901A00200020004030B47446641E2578D5
:10B49000641CAB4200D21D46635D5B00E31830BC08
:10B4A000184702E008C8121F08C1002AFAD17047E5
:10B4B0007047002001E001C1121F002AFBD1704734
:10B4C000202804DA012181400348014201D00120F3
:10B4D0007047002070470000FC06FFBCF7B584B041
:10B4E000064600251788158020300290407B1446C0
:10B4F000002806D03A462146059800F079FA050062
:10B5000009D1B078002823D0059886462088001DF0
:10B51000B84202D90C2007B0F0BD684679DF002898
:10B52000F9D1218803207246505420881921401CEB
:10B5300080B22080115420887146401C80B2208047
:10B5400041186846008801F012FC218840182080CC
:10B55000F078002817D0218803230A46F356C91C27
:10B560000598B942D6D80221815421880122491C6C
:10B5700089B2218042542188491C89B221804354D8
:10B580002088401C20807068002817D02188002364
:10B59000C3560A46C91C0598B942BBD8022181543A
:10B5A00021880A22491C89B2218042542188491CE1
:10B5B00089B2218043542088401C20803089002893
:10B5C0000AD0009430460197062202210830059BDC
:10B5D00001F0E8FB05009ED1308A00280AD00094D3
:10B5E00030460197072203211030059B01F0DAFB5A
:10B5F000050090D1308B00280AD000943046019786
:10B60000152214211830059B01F0CCFB050082D1D6
:10B61000306A002806D03B462246059900F08EFC91
:10B620000500D8D1706A002806D03B46224605990D
:10B6300000F0B8FE0500CED10298007B002807D0AC
:10B640003B4622463046059901F078F90500C2D103
:10B650003078002807D03B4622463046059900F056
:10B66000D5FE0500B7D1284655E7000030B51B4888
:10B6700095B0006813901A4804900E2168468181A5
:10B6800018490180049903980291019006253821F8
:10B6900005A8FFF76AFD002468460475C5750121F9
:10B6A000818413A80A9068460F9010A80170214663
:10B6B00005A800F069F9002801D000F07DF81821F4
:10B6C0000948FFF752FD08480321017044600472E5
:10B6D000A0210182448215B030BD000084CE01005B
:10B6E00070180020AAFE0000B0190020044842682B
:10B6F0000121C9050B46934383600A40C26070472D
:10B700000005005070B50024064D06E06968E000B1
:10B71000085C012100F058FF641C28788442F5D3AE
:10B72000002070BD98180020F8B515460C46064656
:10B73000052A01D20720F8BD01F01CF8002803D12A
:10B7400000F0EAFF0028F6D1104900204E600C708E
:10B75000C8608D6008610E4D0DE0E00069688019D9
:10B76000009181786A46517000780A4A694600F073
:10B7700077FF0028DFD12046641EE4B20028ECD118
:10B78000054A0021024800F023F8F8BD981800206F
:10B79000C8CE010065C00100C5BF0100BFF34F8FD7
:10B7A00004490348C860BFF34F8F00BFFDE70000A6
:10B7B0000400FA0500ED00E00EB5002102900091B2
:10B7C0006A4601910148FFF7E9FF0EBD0140000004
:10B7D000094B5B68002B07D0002A07D0002805D052
:10B7E0000068037C002B03D00820704707207047B7
:10B7F0004174426100207047BC180020FFB5074625
:10B800009007002581B01E461446002825D1002C43
:10B8100023D001F011F83046114EF0603046103060
:10B82000057045700299817044607560357001241F
:10B830000C4875702405046003211420FFF75AFD9D
:10B8400009480460094CA76003211120FFF752FD4D
:10B850006068B060002005B0F0BD0720FBE7000085
:10B86000AC18002080E200E000E100E0001501409B
:10B87000FEB51F4B5B68002B30D000282ED0052969
:10B8800001D20720FEBD4369002B27D0437C012B4A
:10B8900026D00027029104460025694616460D7001
:10B8A000684600F03DF801A801F066FA002819D0BA
:10B8B000012101700F494460496881600299076164
:10B8C0004661C16068460A49007948706846007858
:10B8D00000F044F801F010F92846FEBD0820FEBD36
:10B8E0000F46D7E768460425007800F037F8F3E7FD
:10B8F000BC1800200015014010B50849496800290E
:10B900000AD0002808D04169002905D0002101741F
:10B91000022101F019F910BD082010BDBC1800204B
:10B9200030B5EFF3108172B6094A54680123002C38
:10B9300004D00370002900D162B630BD5360054BBE
:10B940001D68054C254015601C6000220270F1E75F
:10B95000D018002080E100E0FC06FFBC08494A68DE
:10B96000002A0CD000280AD1EFF3108072B60A68C2
:10B97000044B1A6000224A60002800D162B670476A
:10B98000D018002000E100E0F0B50C4693B01F2174
:10B990006A461180072600279180002809D0C178C7
:10B9A00049070DD502A9FFF799FD002809D102AD7D
:10B9B00001E000251780002C0ED0E078002802D08E
:10B9C000304613B0F0BD01AA0AA92046FFF786FD54
:10B9D0000028F6D10AAA02E068460022878068465D
:10B9E0008088C3B268460088C1B2284672DFE8E7A3
:10B9F0007CB5054608880C460930904201D90C20D8
:10BA00007CBD684671DF0028FAD12188082068547F
:10BA100020881B21401C80B220802954208800A946
:10BA2000401C80B22080401906220131FFF784FBC0
:10BA300020886946801D80B220800978002900D0C6
:10BA4000012129542088401C208000207CBD00005A
:10BA5000F8B507460024234802E0641C042C1AD2DF
:10BA6000A2008258BA42F8D1042C14D21D481E4EAE
:10BA70000C38002929D001290ED002290BD16000F1
:10BA8000201880194578002D05D018480169002933
:10BA900001D028468847F8BD61006118755C8E1991
:10BAA000717800290CD011490A22496880685143F5
:10BAB0000E4A521CFFF7DCFE002801D10B484770EC
:10BAC0000A48B17814300155DDE78068FFF714FFAC
:10BAD00006486100611814308919005D8D78A8420C
:10BAE000D1D0F8BD98CE0100081A0020801800209F
:10BAF00070B50023042811D2440004190D4D012A09
:10BB000002D101290DD0002246008019094E80196A
:10BB100000290CD0012906D0022906D00723184697
:10BB200070BD0D30C2B22A55F9E74270F7E7827056
:10BB3000F5E70000081A002010B5054A0146127A00
:10BB40000020D20702D0084600F054F810BD0000D3
:10BB50008018002070B50E46204905464E608D6065
:10BB600000200A61A9071ED50024012211462046A3
:10BB7000FFF7BEFF641C042C02D20028F5D012E0AF
:10BB8000002810D1720804211548FFF7CDFD0028C8
:10BB900009D1FFF7B7FD002805D11148114A00214E
:10BBA0001438FFF715FEE90706D00F220E4952059B
:10BBB0008A600023CB608A6100280DD108480B4AB7
:10BBC00000211C38FFF704FE002805D10448084A6C
:10BBD00001211838FFF7FCFD70BD0000801800201F
:10BBE000A8CE0100EDBD0100000500507DC101009F
:10BBF000EDB60100FEB57A4D0722EB6892059A4337
:10BC000002936B6800939C0006461B1900200121DB
:10BC1000019349050746734C3300FFF735FC180DB7
:10BC20001515374755677C887F8891DE9E9E9E9EBE
:10BC30009EC8CED1D8DEDE140F21029A4905914369
:10BC4000A160E7602F70FEBDA260E76060680F2210
:10BC500052055040800209D5A160E760022E02D152
:10BC6000E120C0000AE07D20400107E0E160A7601C
:10BC7000022E01D1C82001E0FF2091302E706421F6
:10BC8000FFF744FA0099414300223FE0A260E760D9
:10BC900060680F2252055040800204D5A160E76021
:10BCA00019204001EAE7E160A760E3E7A260E760EE
:10BCB00060680F2252055040800202D5A160E76003
:10BCC000D1E7E160A760D7E7A260E76060680F2274
:10BCD00052055040800202D5A160E76001E0E160BA
:10BCE000A7602E700098410000220FE0A260E7607C
:10BCF00060680F2252055040800202D5A160E760C3
:10BD000001E0E160A7602E700099002236480068CB
:10BD1000FFF7AEFDFEBDA260E7601BE06168012099
:10BD2000800502468A43A2600140E16010E060683D
:10BD3000012189050A468243A2600840E060E3E7EA
:10BD40006068012189050A468243A2600840E060DC
:10BD50000199C9E7E160A7602DE023484068FFF73B
:10BD6000CBFD11218A1B01D0002807D00F22E968E2
:10BD700052051140A160E760EF60FEBD0121C905D9
:10BD8000E960012A0CD91046C82148436421FFF715
:10BD9000BDF969680022414313484068FFF768FD18
:10BDA0000F22E96852051140E160A760FEBD0F2136
:10BDB0004905A160E7602E70FEBD07229205AAE743
:10BDC0000D214905A160E76001218905C2E7032132
:10BDD000C905A160E7608910BCE70F214905B9E7F3
:10BDE00080180020000500508CCE010010B50078AE
:10BDF0000221FFF72DFE10BD0022D243830004492B
:10BE00000428CA5002D30818203002777047000077
:10BE1000481A0020F0B50025ED43002A02D0002387
:10BE2000042601E0042308260B4C04E09F00E75998
:10BE30007F1C04D05B1CB342F8D32846F0BD261803
:10BE40005DB2203635709E00A151002AF5D1E1186F
:10BE500020310877F1E70000481A0020024909184C
:10BE60002020085670470000481A002070B5084C82
:10BE7000050009D010342168002907D00868206027
:10BE8000496828468847F6E70834F4E770BD0000A3
:10BE9000341A0020F8B52348416800293ED00E68C6
:10BEA00021494C6887688078E11B0D022D0AED1C42
:10BEB000002814D101201D4A000450601B4A403A5A
:10BEC00050601B49400008601A4908601A49012067
:10BED00008602F2000F0F2FA124901208870B54264
:10BEE00000D23546E81900020F4B000A40331860B3
:10BEF0000D4A5168001B091B0902090A0002000AC9
:10BF0000C91C814209D9506818602F2000F0D6FA68
:10BF100001200749400480390860F8BD00F08CFC1E
:10BF2000F8BD0000AC18002000150140401301408E
:10BF300080E200E000E100E000100140F8B50646B4
:10BF4000108814468446801D0D46984201D90C2065
:10BF5000F8BD32880720062AFAD31927FF01184BAB
:10BF6000BA4201D99A42F3D171880629F0D3B94275
:10BF700001D99942ECD19A4203D0994201D08A4228
:10BF8000E6D805216046295420881221401C80B241
:10BF9000208029542088401C80B22080411930889C
:10BFA00000F0E5FE2188401880B220804119708899
:10BFB00000F0DDFE2188401820800020F8BD000040
:10BFC000FFFF0000F8B500260124154D23E0696845
:10BFD000F0004718387821462A698140114218D06C
:10BFE0008A432A6100F08EFB3A782146EB68914043
:10BFF00019400346934099420BD17978012901D029
:10C00000012100E000217B684140002B01D0104657
:10C010009847761CF6B228788642D8D3F8BD00003F
:10C020009818002010B50E4900230A784C78A242D7
:10C0300012D0521CD2B20A70022A00D10B700A78B8
:10C04000074B920018339A58026088681018000253
:10C05000000A8860012010BD0360002010BD0000B0
:10C06000AC180020F8B50746104E0125BD403068D9
:10C07000FFF742FC00280DD10D4C2069284207D162
:10C08000384600F03FFB0028E06804D0284303E076
:10C09000A8432061F8BDA843E0602069002228433E
:10C0A0002061A1683068FFF7E3FBF8BDC8CE01004E
:10C0B00098180020F8B51E4C2078002836D0E0688B
:10C0C000002600280CD00025607800282ED1684674
:10C0D00052DF052806D0002806D0FFF76DFB0BE0E5
:10C0E0000125F1E7012607E0009800F037FA216901
:10C0F000002901D000988847002D13D160780028CE
:10C1000014D1608869460880A06861DF052804D0E2
:10C11000002804D0FFF750FB04E0012502E0E168AD
:10C12000A0688847002ECFD0002DE5D0F8BD0000D4
:10C13000D81800201048018CC9B2012917D1818C70
:10C14000090714D1018D09060A0F03D1828D120649
:10C15000120F0ED0090F012903D1828D1206120F82
:10C1600007D0032903D1808D0006000F01D00020E5
:10C170007047012070470000C00F00F010B5044860
:10C18000017AC90702D00078FFF734FD10BD000026
:10C1900080180020F0B5284C2146103948688B687B
:10C1A000227886469C46CF78667836E0182353433B
:10C1B0006168521CC918A378D2B2934200D1002200
:10C1C0000B78022B02D0032B27D123E003464D68C6
:10C1D000194603E0A94204D00B46C96900291CD0C6
:10C1E000F8E7002919D08B4208D1C069002805D191
:10C1F000124F0125BD600025AC4601270D68C969B5
:10C20000D961002909D00B685B190B6005E0017446
:10C21000C06900E000210028F9D19642C6D1064944
:10C22000624610398A604860CF70704501D00120A5
:10C23000F0BD0020F0BD0000BC180020001001403F
:10C24000F8B52C4E044670680025009041E0002CA3
:10C2500002D02046E46920E02648182310300178F7
:10C2600042684B43491CC9B2D21801708378994285
:10C2700000D105701178506801292CD1017C00296A
:10C2800029D191684160D16881601169C1605169AB
:10C290008161F178002900D045604368B268164F8B
:10C2A000991A0902090AB94202D28268891806E07D
:10C2B000D11A09028268090A8A4202D9511A016018
:10C2C00000E005604560012185600174C56100F0F2
:10C2D0001BFC002CBBD1074810300178407881420C
:10C2E000BAD171680098814201D00120F8BD0020C8
:10C2F000F8BD0000AC180020FFFF7F00002386B0CF
:10C30000244A05211846FFF779FA002801D0FFF7E3
:10C3100053FA002220490120FFF71CFC002801D01D
:10C32000FFF74AFA1D481B49406805900023482240
:10C33000483905A800F06CFB002801D0FFF73CFA53
:10C3400000216A46084600F04BFB002801D0FFF7A9
:10C3500033FA684600F03AFB002801D0FFF72CFAC8
:10C36000FFF784F90F210E484905C1600021816063
:10C370000848783073DF002801D0FFF71DFA02204B
:10C38000FFF7DAFB00E048DF0028FCD0FFF714FAE3
:10C39000F9E7000038190020CD0C000084CE010020
:10C3A0000005005070B5144682880E460546208868
:10C3B000111D4118921C994201D8FE2A01D90C2066
:10C3C00070BD521C32542088FF21401C80B2208056
:10C3D00031542088401C80B220808119288800F0C8
:10C3E000C6FC2188401880B22080AA88002A09D083
:10C3F000A968002908D08019FEF79EFE2088A98828
:10C4000040182080002070BD072070BDF8B50F4691
:10C41000017814460546012902D16878002806D023
:10C420002088821C9A422DD8012902D006E00720DC
:10C43000F8BD69784118891C994223D8181A801EC2
:10C4400086B2684606802188B81C081869467DDFD8
:10C450000028EDD12878022805D169460988B14223
:10C4600001D809210AE00821012805D16878B042E5
:10C4700002D86A46108001E0684606806846008857
:10C48000FE2801D90C20F8BD2288401CB854208811
:10C49000401C80B22080395420886946401C20808E
:10C4A0000988401820800020F8BD01218907401824
:10C4B0000068002800D001207047000000280FD03D
:10C4C0000849094A096800BF00BF00BF00BF00BF9C
:10C4D00000BF00BF00BF914200D000BF401EF2D19C
:10C4E00070470000EC1800200024F40010B50C4C3C
:10C4F0002078002801D0852010BD0020A060606059
:10C500002061E060032100F02FF800F0ADFA012176
:10C51000002801D1034881612170002010BD000076
:10C52000341A00200005004038B500206946087024
:10C530006846FFF7F5F9084C2078002801D1FFF78D
:10C54000D5FFE068401CE0600120A07068460078DC
:10C55000FFF704FA38BD0000341A002010B5002897
:10C5600001D1FFF783FC10BD8207D30EFF229A4052
:10C570008907090E10B5994000280BDA03071B0F35
:10C58000083B9C080C4BA400E318DC6994430C4363
:10C59000DC6107E08408094BA400E4182368934396
:10C5A0000B432360C106C90E01208840044908607E
:10C5B0000449086010BD000000ED00E000E400E068
:10C5C00080E200E000E100E0F3B581B00F460198A1
:10C5D00000F01AF9012400281D4E019817D0FFF72A
:10C5E0003DFC80192030007F8009032802D00128FB
:10C5F00006D007E01748006901998C40204201D11C
:10C60000022100E00321019800F0CEF8FEBD00F009
:10C6100007F90028FAD00198FFF720FC05468100B1
:10C62000C81D0D4AF93089180A6980B222430A618F
:10C6300000F0CAF8002FE9D00198FFF70FFC800046
:10C6400030580028E2D00548AC404460FEBD0000F0
:10C65000481A0020000500500065004000630040BB
:10C66000FEB5044623480E460019202141560027F6
:10C67000C8171346401C01D0082738E0F278194645
:10C680002046FFF7C7FB0546401C2FD0B078002896
:10C6900007D01948A10009180868022290430860D1
:10C6A00007E000217378204600910A46019100F0CE
:10C6B00069F8F078002810D01048AA0010183178D6
:10C6C00002690F4B1A400261E206D20C8907890BFE
:10C6D0000A4301690A43026109E0064832784019B9
:10C6E0002030017F92011143017700E00427384692
:10C6F000FEBD0000481A0020000700500065004001
:10C70000FFE0FCFF03490969C140C807C00F00D022
:10C71000012070470005005070B5144D287900289D
:10C7200001D0082070BD114900204039421E0B186D
:10C730002033401CC0B21A702028F8D300242046B1
:10C74000FFF75AFB641CE4B2082CF8D3032106203F
:10C75000FFF70AFFFF207D3000F036F80120044982
:10C76000C007486001202871002070BD881A002091
:10C770000063004002480079002800D00120704783
:10C78000881A002030B552000A439900039C0A43DE
:10C790002102049D0A4329040A43024980004018EB
:10C7A000026030BD00070050820006481018026881
:10C7B00003231B049A430260026809040A430260CF
:10C7C0007047000000070050024940180021016036
:10C7D00070470000006000400349401800680128CD
:10C7E00000D0002070470000006000404058002842
:10C7F00000D00120704703221202801840680840D0
:10C8000000D001207047000004490818202141563B
:10C81000042901DB0120704700207047481A0020DE
:10C820000449081820214156042901D201207047EB
:10C8300000207047481A002070B501240B4960049D
:10C8400008600B4940108860094940398860094DEB
:10C850006C602F20FFF732FEAC60074D00242F20C4
:10C86000AC60FFF72BFEAC7070BD000080E100E013
:10C870004013014000100140AC18002030B5FF22E9
:10C880000523CD7D002409321B02C318002D8450DE
:10C89000986905D04B7ECA68D054487E401C4876C3
:10C8A00030BD1FB501246B461C701972019206C879
:10C8B000684690471FBD000010B50446FEF700FE15
:10C8C00000280CD0A007C00E002C0ADA2107090F9F
:10C8D00008398908144A89008918C96906E013488B
:10C8E00010BDA108124A890089180968C1400806CC
:10C8F000800F042811D200280FD002280DD00D4936
:10C900004B68E206D20E01209040002B08D062094D
:10C9100092008B5803438B5004E00448401C10BD28
:10C9200005490860002010BD00ED00E00120000076
:10C9300000E400E0D018002000E100E0FFB5074669
:10C94000806A81B0144600283DD00025384620304A
:10C95000009033E00C20B96A68430E18B088801C40
:10C96000FE2802D90C2005B0F0BD22880299401C97
:10C97000885420881622401C80B2208002990A54D4
:10C980002088401C80B2208002994118308800F035
:10C99000EEF92188401880B22080B288002A0AD09F
:10C9A000B16800290FD0029BC018FEF7C5FB208894
:10C9B000B188401820806D1C0098EDB2007BA84221
:10C9C000C8D80020CFE70720CDE700001CB50349F9
:10C9D00001910091694660DF1CBD000070180020C5
:10C9E00070B50E460546144614211046FEF7BDFBF1
:10C9F0000120002120802161217326726572002DA3
:10CA000000D0A072002070BD10B5FEF7C7FE10BDAB
:10CA1000F8B5002903D08C070025002C01D0072091
:10CA2000F8BD0E4E0E4FB1607280736039680124FC
:10CA3000214003D00A49254680310C60094910DFA6
:10CA4000002803D0002DEBD03C60F8BD3470FFF718
:10CA50006BFD1620FFF730FFF8BD0000D81800204E
:10CA600000E100E009CA01000148007870470000B9
:10CA7000D8180020FEB51F4C0025A76860680290FA
:10CA80006846FFF7CFFA0190FFF784FB064601984E
:10CA9000002822D000230098616817E00E680A463B
:10CAA000864202D9301A086012E0801BF318002673
:10CAB0001660D668D169B446002E07D0FE1836023B
:10CAC000360A566066469660D56115460029E5D15E
:10CAD00028466160FFF7B4FB06E02846FFF7B0FB8D
:10CAE000002801D1002E02D00298FFF7D3F90020D0
:10CAF000E070FEBDAC18002001200249000508606E
:10CB00007047000000E200E010B50E4B59680029A4
:10CB100006D002680C68A24204D8A21A0A60C16159
:10CB2000586010BD0B4604E00B46C969121B002972
:10CB300004D00C689442F7D3A41A0C600260C1615F
:10CB4000D86110BDAC1800207CB50D460646002407
:10CB500069460C706846FEF7E3FE01A800F00CF988
:10CB600000280DD005704660684608490079487075
:10CB700068460078FEF7F2FEFFF7BEFF20467CBD58
:10CB8000684604240078FEF7E9FEF7E7BC180020A9
:10CB9000F8B51D4D6C68002C34D01C480027406847
:10CBA000A968401A0602360A2068B04218D8361A18
:10CBB000C7192246107CE46900280FD000201074A9
:10CBC000EB68002B07D0916950699847002805D081
:10CBD000FEF7F2FD02E0516990698847002CE3D12D
:10CBE00029786878814206D1401CC0B2687002285A
:10CBF00001D10020687004490006800D18310F50E3
:10CC0000FFF77AFFF8BD0000AC18002000150140C6
:10CC1000FF221D32002383508B8A8A68D25C8B8A64
:10CC20005B1C8B82052109024018C26170471FB549
:10CC300000226B461A70197281680191827506C8CC
:10CC4000684690471FBDF0B50C46012185B00546EA
:10CC50004902FFF7D0FD032109026F1800260028C2
:10CC600026D0FF2125312846FFF7C0FD00281FD020
:10CC7000FF2025302E5081208000B860A07E002843
:10CC800001D1012068600221684601700920C001BD
:10CC90002918086808600390E17D68460172E06821
:10CCA0000190E675267606CC6846083C90472DE054
:10CCB00004212846FFF79FFD002827D0FF210931D6
:10CCC0002846FFF793FD002820D021462846FFF78D
:10CCD000D5FDE07D617E884218D1207E002807D0F6
:10CCE000617EE268E0752069E060267666760AE09B
:10CCF000A07E002801D10120686081208000B860FA
:10CD0000E675617EE2682046FFF7CBFDFF271D3701
:10CD100039462846FFF76AFD00280FD0A08AA17D7A
:10CD2000884204D221462846FFF772FF06E0EE5102
:10CD3000A17D002902D02046FFF779FFFF27453764
:10CD400039462846FFF752FD00280ED0EE51A07E4E
:10CD5000002801D001202860E07D002805D0E6757C
:10CD6000617EE2682046FFF79CFD05B0F0BD0870CB
:10CD7000000A48700220704710B509494B788C783A
:10CD80005A1CD2B2944200D100220C78944201D1B4
:10CD9000002010BD0270486818214B43C01810BD18
:10CDA000BC180020FFB583B016460C9D0D9C1F4695
:10CDB000022200950194039800F00CF8002807D196
:10CDC0003B461022314600950194039800F002F88A
:10CDD00007B0F0BDFFB583B0074600200C9C864627
:10CDE000268805463AE07868A90042181188684606
:10CDF00081805188C1800022694601A865DF002832
:10CE000039D1684601780598814226D170460028BC
:10CE100001D0002200E002222088891842180D99D2
:10CE20008A4227D8714600290AD1401C80B220804E
:10CE3000069A049911542088401C208001208646BF
:10CE4000218806980A18694601A865DF002812D1D2
:10CE5000694620880978401820806D1C3888A842CF
:10CE6000C1DC704600280AD02088801B401E80B29A
:10CE7000FF2802D90C2007B0F0BD06998855002084
:10CE8000F9E70000AAFE010001000007C819002010
:10CE9000E8190020141A0020110000001200000000
:10CEA00013000000140000001100030051BA01003B
:10CEB0001200030051BA01001300030051BA01002F
:10CEC0001400030051BA0100AC1A00200300000056
:10CED000F0CE01007018002080000000A2B4010014
:10CEE00070CF0100F0180020E0090000B2B401008A
:10CEF00010EE006E6F7264696373656D6900000007
:10CF00000000000000000000000000000000000021
:10CF10000000000000000000000000000000000011
:10CF20000000000000000000000000000000000001
:10CF300000000000000000000000000000000000F1
:10CF400000000000000000000000000000000000E1
:10CF500000000000000000000000000000000000D1
:10CF60000000000000000000000000000024F400A9
:040000050001B0C185
:00000001FF
